:100000000C9434000C943E000C943E000C943E0082
:100010000C943E000C943E000C943E000C943E0068
:100020000C943E000C943E000C943E000C943E0058
:100030000C943E000C943E000C943E000C943E0048
:100040000C943E000C943E000C943E000C943E0038
:100050000C943E000C943E000C943E000C943E0028
:100060000C943E000C943E0011241FBECFEFD8E04C
:10007000DEBFCDBF0E940D010C9424010C94000042
:1000800008C08FE99FE00197F1F700C000006150C0
:10009000710961157105A9F7089506C085E08A9573
:1000A000F1F700006150710961157105B9F7089504
:1000B0009BB1862F8C7F892B8BB985B16370682BA0
:1000C00065B908959BB1862F8C7F809589238BB964
:1000D00085B163706095682365B908953AB1262F9C
:1000E0002C7F232B2AB934B1262F2370232B24B93C
:1000F0000C9462006FEF0C946E009F92AF92BF92CF
:10010000CF92DF92EF92FF920F931F93CF93DF93E3
:100110008C01962EC0E0D0E09AE0A92EB12C18C038
:10012000692DC8010E945800BE01C8010E9440000C
:10013000692DC8010E946200B601C8010E944000FA
:1001400081E0E81AF10861F72196CA30D10539F04B
:1001500085E0E82EF12C6501CC1ADD0AE1CFDF91B4
:10016000CF911F910F91FF90EF90DF90CF90BF90B4
:10017000AF909F9008959F92AF92BF92CF92DF92DF
:10018000EF92FF920F931F93CF93DF938C01962EE4
:10019000CAE0D0E03AE0A32EB12C16C0692DC80108
:1001A0000E945800BE01C8010E944000692DC8018C
:1001B0000E946200B601C8010E94400081E0E81A76
:1001C000F10861F7219739F025E0E22EF12C650165
:1001D000CC1ADD0AE3CFDF91CF911F910F91FF90F1
:1001E000EF90DF90CF90BF90AF909F900895259AA9
:1001F0002D980895CF93DF93EC010E947A00CE01F1
:10020000DF91CF910C94F7002D9A08952D980895C1
:1002100085B190E2892785B90895CF93DF931F9226
:10022000CDB7DEB78E010F5F1F4FC8010E94FA00E5
:1002300064E0C8010E947D0064E0C8010E94BB0028
:0C024000C8010E940801F4CFF894FFCF21
:00000001FF
